{
  "_format": "hh-sol-artifact-1",
  "contractName": "LandRegistry",
  "sourceName": "contracts/LandRegistry.sol",
  "abi": [
    {
      "inputs": [
        {
          "internalType": "address",
          "name": "_authority",
          "type": "address"
        }
      ],
      "stateMutability": "nonpayable",
      "type": "constructor"
    },
    {
      "anonymous": false,
      "inputs": [
        {
          "indexed": true,
          "internalType": "uint256",
          "name": "propertyId",
          "type": "uint256"
        },
        {
          "indexed": true,
          "internalType": "address",
          "name": "owner",
          "type": "address"
        },
        {
          "indexed": false,
          "internalType": "string",
          "name": "registryId",
          "type": "string"
        },
        {
          "indexed": false,
          "internalType": "string",
          "name": "ipfsHash",
          "type": "string"
        },
        {
          "indexed": false,
          "internalType": "uint256",
          "name": "timestamp",
          "type": "uint256"
        }
      ],
      "name": "PropertyRegistered",
      "type": "event"
    },
    {
      "anonymous": false,
      "inputs": [
        {
          "indexed": true,
          "internalType": "uint256",
          "name": "propertyId",
          "type": "uint256"
        },
        {
          "indexed": true,
          "internalType": "address",
          "name": "authority",
          "type": "address"
        },
        {
          "indexed": false,
          "internalType": "uint256",
          "name": "timestamp",
          "type": "uint256"
        }
      ],
      "name": "PropertyRejected",
      "type": "event"
    },
    {
      "anonymous": false,
      "inputs": [
        {
          "indexed": true,
          "internalType": "uint256",
          "name": "propertyId",
          "type": "uint256"
        },
        {
          "indexed": true,
          "internalType": "address",
          "name": "previousOwner",
          "type": "address"
        },
        {
          "indexed": true,
          "internalType": "address",
          "name": "newOwner",
          "type": "address"
        },
        {
          "indexed": false,
          "internalType": "uint256",
          "name": "timestamp",
          "type": "uint256"
        }
      ],
      "name": "PropertyTransferred",
      "type": "event"
    },
    {
      "anonymous": false,
      "inputs": [
        {
          "indexed": true,
          "internalType": "uint256",
          "name": "propertyId",
          "type": "uint256"
        },
        {
          "indexed": true,
          "internalType": "address",
          "name": "authority",
          "type": "address"
        },
        {
          "indexed": false,
          "internalType": "uint256",
          "name": "timestamp",
          "type": "uint256"
        }
      ],
      "name": "PropertyVerified",
      "type": "event"
    },
    {
      "inputs": [
        {
          "internalType": "uint256",
          "name": "_propertyId",
          "type": "uint256"
        }
      ],
      "name": "getOwnershipHistory",
      "outputs": [
        {
          "internalType": "address[]",
          "name": "",
          "type": "address[]"
        }
      ],
      "stateMutability": "view",
      "type": "function"
    },
    {
      "inputs": [
        {
          "internalType": "address",
          "name": "_owner",
          "type": "address"
        }
      ],
      "name": "getPropertiesByOwner",
      "outputs": [
        {
          "internalType": "uint256[]",
          "name": "",
          "type": "uint256[]"
        }
      ],
      "stateMutability": "view",
      "type": "function"
    },
    {
      "inputs": [
        {
          "internalType": "uint256",
          "name": "_propertyId",
          "type": "uint256"
        }
      ],
      "name": "getProperty",
      "outputs": [
        {
          "components": [
            {
              "internalType": "uint256",
              "name": "id",
              "type": "uint256"
            },
            {
              "internalType": "address",
              "name": "owner",
              "type": "address"
            },
            {
              "internalType": "string",
              "name": "registryId",
              "type": "string"
            },
            {
              "internalType": "string",
              "name": "ipfsHash",
              "type": "string"
            },
            {
              "internalType": "bool",
              "name": "verified",
              "type": "bool"
            },
            {
              "internalType": "bool",
              "name": "exists",
              "type": "bool"
            },
            {
              "internalType": "uint256",
              "name": "timestamp",
              "type": "uint256"
            },
            {
              "internalType": "string",
              "name": "ownerName",
              "type": "string"
            },
            {
              "internalType": "string",
              "name": "plotNumber",
              "type": "string"
            },
            {
              "internalType": "string",
              "name": "area",
              "type": "string"
            },
            {
              "internalType": "string",
              "name": "propertyAddress",
              "type": "string"
            }
          ],
          "internalType": "struct LandRegistry.Property",
          "name": "",
          "type": "tuple"
        }
      ],
      "stateMutability": "view",
      "type": "function"
    },
    {
      "inputs": [],
      "name": "getPropertyCount",
      "outputs": [
        {
          "internalType": "uint256",
          "name": "",
          "type": "uint256"
        }
      ],
      "stateMutability": "view",
      "type": "function"
    },
    {
      "inputs": [],
      "name": "governmentAuthority",
      "outputs": [
        {
          "internalType": "address",
          "name": "",
          "type": "address"
        }
      ],
      "stateMutability": "view",
      "type": "function"
    },
    {
      "inputs": [
        {
          "internalType": "address",
          "name": "",
          "type": "address"
        },
        {
          "internalType": "uint256",
          "name": "",
          "type": "uint256"
        }
      ],
      "name": "ownerProperties",
      "outputs": [
        {
          "internalType": "uint256",
          "name": "",
          "type": "uint256"
        }
      ],
      "stateMutability": "view",
      "type": "function"
    },
    {
      "inputs": [
        {
          "internalType": "uint256",
          "name": "",
          "type": "uint256"
        },
        {
          "internalType": "uint256",
          "name": "",
          "type": "uint256"
        }
      ],
      "name": "ownershipHistory",
      "outputs": [
        {
          "internalType": "address",
          "name": "",
          "type": "address"
        }
      ],
      "stateMutability": "view",
      "type": "function"
    },
    {
      "inputs": [
        {
          "internalType": "uint256",
          "name": "",
          "type": "uint256"
        }
      ],
      "name": "properties",
      "outputs": [
        {
          "internalType": "uint256",
          "name": "id",
          "type": "uint256"
        },
        {
          "internalType": "address",
          "name": "owner",
          "type": "address"
        },
        {
          "internalType": "string",
          "name": "registryId",
          "type": "string"
        },
        {
          "internalType": "string",
          "name": "ipfsHash",
          "type": "string"
        },
        {
          "internalType": "bool",
          "name": "verified",
          "type": "bool"
        },
        {
          "internalType": "bool",
          "name": "exists",
          "type": "bool"
        },
        {
          "internalType": "uint256",
          "name": "timestamp",
          "type": "uint256"
        },
        {
          "internalType": "string",
          "name": "ownerName",
          "type": "string"
        },
        {
          "internalType": "string",
          "name": "plotNumber",
          "type": "string"
        },
        {
          "internalType": "string",
          "name": "area",
          "type": "string"
        },
        {
          "internalType": "string",
          "name": "propertyAddress",
          "type": "string"
        }
      ],
      "stateMutability": "view",
      "type": "function"
    },
    {
      "inputs": [],
      "name": "propertyCount",
      "outputs": [
        {
          "internalType": "uint256",
          "name": "",
          "type": "uint256"
        }
      ],
      "stateMutability": "view",
      "type": "function"
    },
    {
      "inputs": [
        {
          "internalType": "string",
          "name": "_registryId",
          "type": "string"
        },
        {
          "internalType": "string",
          "name": "_ipfsHash",
          "type": "string"
        },
        {
          "internalType": "string",
          "name": "_ownerName",
          "type": "string"
        },
        {
          "internalType": "string",
          "name": "_plotNumber",
          "type": "string"
        },
        {
          "internalType": "string",
          "name": "_area",
          "type": "string"
        },
        {
          "internalType": "string",
          "name": "_propertyAddress",
          "type": "string"
        }
      ],
      "name": "registerProperty",
      "outputs": [
        {
          "internalType": "uint256",
          "name": "",
          "type": "uint256"
        }
      ],
      "stateMutability": "nonpayable",
      "type": "function"
    },
    {
      "inputs": [
        {
          "internalType": "uint256",
          "name": "_propertyId",
          "type": "uint256"
        }
      ],
      "name": "rejectProperty",
      "outputs": [],
      "stateMutability": "nonpayable",
      "type": "function"
    },
    {
      "inputs": [
        {
          "internalType": "uint256",
          "name": "_propertyId",
          "type": "uint256"
        },
        {
          "internalType": "address",
          "name": "_newOwner",
          "type": "address"
        }
      ],
      "name": "transferProperty",
      "outputs": [],
      "stateMutability": "nonpayable",
      "type": "function"
    },
    {
      "inputs": [
        {
          "internalType": "uint256",
          "name": "_propertyId",
          "type": "uint256"
        }
      ],
      "name": "verifyProperty",
      "outputs": [],
      "stateMutability": "nonpayable",
      "type": "function"
    }
  ],
  "bytecode": "0x608060405234801561001057600080fd5b50604051611b71380380611b7183398101604081905261002f91610054565b600080546001600160a01b0319166001600160a01b0392909216919091179055610084565b60006020828403121561006657600080fd5b81516001600160a01b038116811461007d57600080fd5b9392505050565b611ade806100936000396000f3fe608060405234801561001057600080fd5b50600436106100cf5760003560e01c80639fcb27481161008c578063c9cf2adc11610066578063c9cf2adc146101ad578063f1dbaccb146101c0578063f7b10808146101e0578063ff3562371461020a57600080fd5b80639fcb274814610171578063bb14503f14610191578063c361a335146101a457600080fd5b806327983fcf146100d4578063293530f7146100e957806332665ffb146101195780634212a8ae146101395780637326b9011461014c5780638f48bd5b1461015e575b600080fd5b6100e76100e2366004611334565b61021d565b005b6000546100fc906001600160a01b031681565b6040516001600160a01b0390911681526020015b60405180910390f35b61012c610127366004611334565b610350565b6040516101109190611393565b6100e7610147366004611334565b6107cb565b6001545b604051908152602001610110565b61015061016c3660046114c2565b6108e1565b61018461017f3660046114ec565b610912565b604051610110919061150e565b61015061019f3660046115f5565b61097e565b61015060015481565b6100fc6101bb3660046116ea565b610b7a565b6101d36101ce366004611334565b610bb2565b604051610110919061170c565b6101f36101ee366004611334565b610c1d565b6040516101109b9a9998979695949392919061174d565b6100e7610218366004611807565b610fb4565b6000546001600160a01b031633146102505760405162461bcd60e51b815260040161024790611833565b60405180910390fd5b6000818152600260205260409020600401548190610100900460ff166102885760405162461bcd60e51b815260040161024790611884565b60008281526002602052604090206004015460ff16156102f45760405162461bcd60e51b815260206004820152602160248201527f43616e6e6f742072656a65637420612076657269666965642070726f706572746044820152607960f81b6064820152608401610247565b60008281526002602052604090819020600401805461ff001916905551339083907fa621e0271216c2f302777327edacdeb7c25ed780f819664ced4f38756b861bd8906103449042815260200190565b60405180910390a35050565b6103ba6040518061016001604052806000815260200160006001600160a01b03168152602001606081526020016060815260200160001515815260200160001515815260200160008152602001606081526020016060815260200160608152602001606081525090565b6000828152600260205260409020600401548290610100900460ff166103f25760405162461bcd60e51b815260040161024790611884565b6000838152600260208181526040928390208351610160810185528154815260018201546001600160a01b03169281019290925291820180549193840191610439906118bb565b80601f0160208091040260200160405190810160405280929190818152602001828054610465906118bb565b80156104b25780601f10610487576101008083540402835291602001916104b2565b820191906000526020600020905b81548152906001019060200180831161049557829003601f168201915b505050505081526020016003820180546104cb906118bb565b80601f01602080910402602001604051908101604052809291908181526020018280546104f7906118bb565b80156105445780601f1061051957610100808354040283529160200191610544565b820191906000526020600020905b81548152906001019060200180831161052757829003601f168201915b5050509183525050600482015460ff8082161515602084015261010090910416151560408201526005820154606082015260068201805460809092019161058a906118bb565b80601f01602080910402602001604051908101604052809291908181526020018280546105b6906118bb565b80156106035780601f106105d857610100808354040283529160200191610603565b820191906000526020600020905b8154815290600101906020018083116105e657829003601f168201915b5050505050815260200160078201805461061c906118bb565b80601f0160208091040260200160405190810160405280929190818152602001828054610648906118bb565b80156106955780601f1061066a57610100808354040283529160200191610695565b820191906000526020600020905b81548152906001019060200180831161067857829003601f168201915b505050505081526020016008820180546106ae906118bb565b80601f01602080910402602001604051908101604052809291908181526020018280546106da906118bb565b80156107275780601f106106fc57610100808354040283529160200191610727565b820191906000526020600020905b81548152906001019060200180831161070a57829003601f168201915b50505050508152602001600982018054610740906118bb565b80601f016020809104026020016040519081016040528092919081815260200182805461076c906118bb565b80156107b95780601f1061078e576101008083540402835291602001916107b9565b820191906000526020600020905b81548152906001019060200180831161079c57829003601f168201915b50505050508152505091505b50919050565b6000546001600160a01b031633146107f55760405162461bcd60e51b815260040161024790611833565b6000818152600260205260409020600401548190610100900460ff1661082d5760405162461bcd60e51b815260040161024790611884565b60008281526002602052604090206004015460ff161561088f5760405162461bcd60e51b815260206004820152601c60248201527f50726f706572747920697320616c7265616479207665726966696564000000006044820152606401610247565b60008281526002602052604090819020600401805460ff1916600117905551339083907f4fdf86fb949d94ea64686b0c53072d1e62e2b9205a072cd65dbacfe8f7556dcf906103449042815260200190565b600460205281600052604060002081815481106108fd57600080fd5b90600052602060002001600091509150505481565b6001600160a01b03811660009081526004602090815260409182902080548351818402810184019094528084526060939283018282801561097257602002820191906000526020600020905b81548152602001906001019080831161095e575b50505050509050919050565b600180546000918261098f83611905565b90915550506001805460408051610160810182528281523360208083019182528284018d8152606084018d905260006080850181905260a085018890524260c086015260e085018d905261010085018c905261012085018b905261014085018a90528681526002928390529490942083518155915195820180546001600160a01b0319166001600160a01b039097169690961790955591519293909290820190610a39908261196d565b5060608201516003820190610a4e908261196d565b50608082015160048201805460a085015115156101000261ff00199315159390931661ffff199091161791909117905560c0820151600582015560e08201516006820190610a9c908261196d565b506101008201516007820190610ab2908261196d565b506101208201516008820190610ac8908261196d565b506101408201516009820190610ade908261196d565b50505060008181526003602090815260408083208054600181810183559185528385200180546001600160a01b031916339081179091558085526004845282852080549283018155855292909320909201839055905182907ff78be3c6305ed1d283f13636ed7ad55fea081be8d7083f165b2ad514df8cadd390610b67908c908c904290611a2d565b60405180910390a3979650505050505050565b60036020528160005260406000208181548110610b9657600080fd5b6000918252602090912001546001600160a01b03169150829050565b60008181526003602090815260409182902080548351818402810184019094528084526060939283018282801561097257602002820191906000526020600020905b81546001600160a01b03168152600190910190602001808311610bf45750505050509050919050565b600260208190526000918252604090912080546001820154928201805491936001600160a01b03169291610c50906118bb565b80601f0160208091040260200160405190810160405280929190818152602001828054610c7c906118bb565b8015610cc95780601f10610c9e57610100808354040283529160200191610cc9565b820191906000526020600020905b815481529060010190602001808311610cac57829003601f168201915b505050505090806003018054610cde906118bb565b80601f0160208091040260200160405190810160405280929190818152602001828054610d0a906118bb565b8015610d575780601f10610d2c57610100808354040283529160200191610d57565b820191906000526020600020905b815481529060010190602001808311610d3a57829003601f168201915b5050505060048301546005840154600685018054949560ff808516966101009095041694509192610d87906118bb565b80601f0160208091040260200160405190810160405280929190818152602001828054610db3906118bb565b8015610e005780601f10610dd557610100808354040283529160200191610e00565b820191906000526020600020905b815481529060010190602001808311610de357829003601f168201915b505050505090806007018054610e15906118bb565b80601f0160208091040260200160405190810160405280929190818152602001828054610e41906118bb565b8015610e8e5780601f10610e6357610100808354040283529160200191610e8e565b820191906000526020600020905b815481529060010190602001808311610e7157829003601f168201915b505050505090806008018054610ea3906118bb565b80601f0160208091040260200160405190810160405280929190818152602001828054610ecf906118bb565b8015610f1c5780601f10610ef157610100808354040283529160200191610f1c565b820191906000526020600020905b815481529060010190602001808311610eff57829003601f168201915b505050505090806009018054610f31906118bb565b80601f0160208091040260200160405190810160405280929190818152602001828054610f5d906118bb565b8015610faa5780601f10610f7f57610100808354040283529160200191610faa565b820191906000526020600020905b815481529060010190602001808311610f8d57829003601f168201915b505050505090508b565b60008281526002602052604090206001015482906001600160a01b031633146110375760405162461bcd60e51b815260206004820152602f60248201527f4f6e6c79207468652070726f7065727479206f776e65722063616e207065726660448201526e37b936903a3434b99030b1ba34b7b760891b6064820152608401610247565b6000838152600260205260409020600401548390610100900460ff1661106f5760405162461bcd60e51b815260040161024790611884565b60008481526002602052604090206004015460ff166110e25760405162461bcd60e51b815260206004820152602960248201527f50726f7065727479206d757374206265207665726966696564206265666f7265604482015268103a3930b739b332b960b91b6064820152608401610247565b6001600160a01b0383166111385760405162461bcd60e51b815260206004820152601960248201527f496e76616c6964206e6577206f776e65722061646472657373000000000000006044820152606401610247565b336001600160a01b038416036111905760405162461bcd60e51b815260206004820152601b60248201527f43616e6e6f74207472616e7366657220746f20796f757273656c6600000000006044820152606401610247565b6000848152600260209081526040808320600190810180546001600160a01b038981166001600160a01b031980841682179094556003875285882080548087018255908952878920018054909416811790935591865260048552928520805492830181558552929093209092018690551661120b8186611260565b836001600160a01b0316816001600160a01b0316867fa57b4707b863fa4d85ff792987d8e13ff99ac4c4f237969e628682fbe257dcb74260405161125191815260200190565b60405180910390a45050505050565b6001600160a01b0382166000908152600460205260408120905b815481101561132e578282828154811061129657611296611a63565b90600052602060002001540361131c57815482906112b690600190611a79565b815481106112c6576112c6611a63565b90600052602060002001548282815481106112e3576112e3611a63565b90600052602060002001819055508180548061130157611301611a92565b6001900381819060005260206000200160009055905561132e565b8061132681611905565b91505061127a565b50505050565b60006020828403121561134657600080fd5b5035919050565b6000815180845260005b8181101561137357602081850181015186830182015201611357565b506000602082860101526020601f19601f83011685010191505092915050565b6020815281516020820152600060208301516113ba60408401826001600160a01b03169052565b5060408301516101608060608501526113d761018085018361134d565b91506060850151601f19808685030160808701526113f5848361134d565b93506080870151915061140c60a087018315159052565b60a087015180151560c0880152915060c087015160e087015260e08701519150610100818786030181880152611442858461134d565b945080880151925050610120818786030181880152611461858461134d565b945080880151925050610140818786030181880152611480858461134d565b90880151878203909201848801529350905061149c838261134d565b9695505050505050565b80356001600160a01b03811681146114bd57600080fd5b919050565b600080604083850312156114d557600080fd5b6114de836114a6565b946020939093013593505050565b6000602082840312156114fe57600080fd5b611507826114a6565b9392505050565b6020808252825182820181905260009190848201906040850190845b818110156115465783518352928401929184019160010161152a565b50909695505050505050565b634e487b7160e01b600052604160045260246000fd5b600082601f83011261157957600080fd5b813567ffffffffffffffff8082111561159457611594611552565b604051601f8301601f19908116603f011681019082821181831017156115bc576115bc611552565b816040528381528660208588010111156115d557600080fd5b836020870160208301376000602085830101528094505050505092915050565b60008060008060008060c0878903121561160e57600080fd5b863567ffffffffffffffff8082111561162657600080fd5b6116328a838b01611568565b9750602089013591508082111561164857600080fd5b6116548a838b01611568565b9650604089013591508082111561166a57600080fd5b6116768a838b01611568565b9550606089013591508082111561168c57600080fd5b6116988a838b01611568565b945060808901359150808211156116ae57600080fd5b6116ba8a838b01611568565b935060a08901359150808211156116d057600080fd5b506116dd89828a01611568565b9150509295509295509295565b600080604083850312156116fd57600080fd5b50508035926020909101359150565b6020808252825182820181905260009190848201906040850190845b818110156115465783516001600160a01b031683529284019291840191600101611728565b8b81526001600160a01b038b166020820152610160604082018190526000906117788382018d61134d565b9050828103606084015261178c818c61134d565b8a15156080850152905088151560a08401528760c084015282810360e08401526117b6818861134d565b90508281036101008401526117cb818761134d565b90508281036101208401526117e0818661134d565b90508281036101408401526117f5818561134d565b9e9d5050505050505050505050505050565b6000806040838503121561181a57600080fd5b8235915061182a602084016114a6565b90509250929050565b60208082526031908201527f4f6e6c7920676f7665726e6d656e7420617574686f726974792063616e207065604082015270393337b936903a3434b99030b1ba34b7b760791b606082015260800190565b60208082526017908201527f50726f706572747920646f6573206e6f74206578697374000000000000000000604082015260600190565b600181811c908216806118cf57607f821691505b6020821081036107c557634e487b7160e01b600052602260045260246000fd5b634e487b7160e01b600052601160045260246000fd5b600060018201611917576119176118ef565b5060010190565b601f82111561196857600081815260208120601f850160051c810160208610156119455750805b601f850160051c820191505b8181101561196457828155600101611951565b5050505b505050565b815167ffffffffffffffff81111561198757611987611552565b61199b8161199584546118bb565b8461191e565b602080601f8311600181146119d057600084156119b85750858301515b600019600386901b1c1916600185901b178555611964565b600085815260208120601f198616915b828110156119ff578886015182559484019460019091019084016119e0565b5085821015611a1d5787850151600019600388901b60f8161c191681555b5050505050600190811b01905550565b606081526000611a40606083018661134d565b8281036020840152611a52818661134d565b915050826040830152949350505050565b634e487b7160e01b600052603260045260246000fd5b81810381811115611a8c57611a8c6118ef565b92915050565b634e487b7160e01b600052603160045260246000fdfea2646970667358221220e5df1f5df8dde7f136487b546ba515067754412aa54465a604b1a28720f2cf6064736f6c63430008130033",
  "linkReferences": {},
  "deployedLinkReferences": {}
}